:020000002928AD
:10000800FF00030E8301D0000A08CF008A018B1C71
:100018000F288B10A20A4F088A00500E8300FF0E8B
:040028007F0E09003E
:0E002C00831203134E088A004D08820008005C
:10003A0016208A110A128000840ACD0A0319CE0AF0
:08004A00F003031D1D2808004E
:10005200842183160313870188018501890106140F
:10006200861407309F008B170B160113831287012A
:1000720088018501860189018618E628B4013408C1
:10008200173C031C9228861C472892283408353EC8
:1000920084000008870003303407F000F1010318E0
:1000A200F10A7008353E840000088800013085009E
:1000B200043089000B30FB002630FC005D30FD006F
:1000C200FD0B6128FC0B6128FB0B6128000000007E
:1000D2000808003A031D90283408173C031C902896
:1000E2003408353EF000700884000008870070086C
:1000F20084000008880001308500023089000B303E
:10010200FB002630FC005D30FD00FD0B8628FC0B59
:100112008628FB0B862800000000B40A6D28B40A6A
:100122004028A30123080F3C031CE528861C9A28BB
:10013200E52803302307F000F1010318F10A7008E3
:10014200243E8400000887002308243E840000081F
:10015200880004308500013089000B30FB00263016
:10016200FC005D30FD00FD0BB428FC0BB428FB0B3A
:10017200B428000000000708003A031DE328230802
:100182000F3C031CE3282308243EF000700884007F
:10019200000887007008840000088800023085008B
:1001A200013089000B30FB002630FC005D30FD0081
:1001B200FD0BD928FC0BD928FB0BD9280000000025
:1001C200A30AC028A30A93283D28861C4F29220887
:1001D200013A031DF22888018701013085000430AD
:1001E20089002208023A031D1B290330A1000030B6
:1001F2002102031C1B292108003A031D0529033093
:10020200A1000330A2001B290130850002308900C1
:10021200210888000B30FB002630FC005D30FD0019
:10022200FD0B1129FC0B1129FB0B11290000000009
:10023200A103F8282208033A031D25298801870112
:1002420004308500013089002208043A031D4E293A
:100252000330A00000302002031C4E292008003A7F
:10026200031D36290330A0004E29023085000130DB
:100272008900200887000B30FB002630FC005D302F
:10028200FD00FD0B4229FC0B4229FB0B4229000019
:1002920000000130A200A0032B29E62837285029AC
:10030800203084002D3083120313F0005630CD00C6
:080318000130CE001D20080099
:0202AC00033419
:0202AE00033417
:0202B000003418
:0202B200003416
:1002B400153414341334123411341034093408341A
:1002C400073406340534043403340234013400346E
:0202D4000034F4
:1002D6002334223421342034193418341734163494
:1002E60015341434133412341134103409340834E8
:1002F600073406340534043403340234013400343C
:02400E004A2F37
:00000001FF
